{
  "_format": "hh-sol-artifact-1",
  "contractName": "RewardToken",
  "sourceName": "contracts/RewardToken.sol",
  "abi": [
    {
      "inputs": [
        {
          "internalType": "uint256",
          "name": "_initialSupply",
          "type": "uint256"
        }
      ],
      "stateMutability": "nonpayable",
      "type": "constructor"
    },
    {
      "anonymous": false,
      "inputs": [
        {
          "indexed": true,
          "internalType": "address",
          "name": "owner",
          "type": "address"
        },
        {
          "indexed": true,
          "internalType": "address",
          "name": "spender",
          "type": "address"
        },
        {
          "indexed": false,
          "internalType": "uint256",
          "name": "value",
          "type": "uint256"
        }
      ],
      "name": "Approval",
      "type": "event"
    },
    {
      "anonymous": false,
      "inputs": [
        {
          "indexed": true,
          "internalType": "address",
          "name": "from",
          "type": "address"
        },
        {
          "indexed": false,
          "internalType": "uint256",
          "name": "amount",
          "type": "uint256"
        }
      ],
      "name": "Burn",
      "type": "event"
    },
    {
      "anonymous": false,
      "inputs": [
        {
          "indexed": true,
          "internalType": "address",
          "name": "to",
          "type": "address"
        },
        {
          "indexed": false,
          "internalType": "uint256",
          "name": "amount",
          "type": "uint256"
        }
      ],
      "name": "Mint",
      "type": "event"
    },
    {
      "anonymous": false,
      "inputs": [
        {
          "indexed": true,
          "internalType": "address",
          "name": "minter",
          "type": "address"
        }
      ],
      "name": "MinterAdded",
      "type": "event"
    },
    {
      "anonymous": false,
      "inputs": [
        {
          "indexed": true,
          "internalType": "address",
          "name": "minter",
          "type": "address"
        }
      ],
      "name": "MinterRemoved",
      "type": "event"
    },
    {
      "anonymous": false,
      "inputs": [
        {
          "indexed": true,
          "internalType": "address",
          "name": "from",
          "type": "address"
        },
        {
          "indexed": true,
          "internalType": "address",
          "name": "to",
          "type": "address"
        },
        {
          "indexed": false,
          "internalType": "uint256",
          "name": "value",
          "type": "uint256"
        }
      ],
      "name": "Transfer",
      "type": "event"
    },
    {
      "inputs": [
        {
          "internalType": "address",
          "name": "_minter",
          "type": "address"
        }
      ],
      "name": "addMinter",
      "outputs": [],
      "stateMutability": "nonpayable",
      "type": "function"
    },
    {
      "inputs": [
        {
          "internalType": "address",
          "name": "",
          "type": "address"
        },
        {
          "internalType": "address",
          "name": "",
          "type": "address"
        }
      ],
      "name": "allowance",
      "outputs": [
        {
          "internalType": "uint256",
          "name": "",
          "type": "uint256"
        }
      ],
      "stateMutability": "view",
      "type": "function"
    },
    {
      "inputs": [
        {
          "internalType": "address",
          "name": "_spender",
          "type": "address"
        },
        {
          "internalType": "uint256",
          "name": "_value",
          "type": "uint256"
        }
      ],
      "name": "approve",
      "outputs": [
        {
          "internalType": "bool",
          "name": "success",
          "type": "bool"
        }
      ],
      "stateMutability": "nonpayable",
      "type": "function"
    },
    {
      "inputs": [
        {
          "internalType": "address",
          "name": "",
          "type": "address"
        }
      ],
      "name": "balanceOf",
      "outputs": [
        {
          "internalType": "uint256",
          "name": "",
          "type": "uint256"
        }
      ],
      "stateMutability": "view",
      "type": "function"
    },
    {
      "inputs": [
        {
          "internalType": "uint256",
          "name": "_amount",
          "type": "uint256"
        }
      ],
      "name": "burn",
      "outputs": [
        {
          "internalType": "bool",
          "name": "",
          "type": "bool"
        }
      ],
      "stateMutability": "nonpayable",
      "type": "function"
    },
    {
      "inputs": [],
      "name": "decimals",
      "outputs": [
        {
          "internalType": "uint8",
          "name": "",
          "type": "uint8"
        }
      ],
      "stateMutability": "view",
      "type": "function"
    },
    {
      "inputs": [
        {
          "internalType": "address",
          "name": "",
          "type": "address"
        }
      ],
      "name": "isMinter",
      "outputs": [
        {
          "internalType": "bool",
          "name": "",
          "type": "bool"
        }
      ],
      "stateMutability": "view",
      "type": "function"
    },
    {
      "inputs": [
        {
          "internalType": "address",
          "name": "_to",
          "type": "address"
        },
        {
          "internalType": "uint256",
          "name": "_amount",
          "type": "uint256"
        }
      ],
      "name": "mint",
      "outputs": [
        {
          "internalType": "bool",
          "name": "",
          "type": "bool"
        }
      ],
      "stateMutability": "nonpayable",
      "type": "function"
    },
    {
      "inputs": [],
      "name": "name",
      "outputs": [
        {
          "internalType": "string",
          "name": "",
          "type": "string"
        }
      ],
      "stateMutability": "view",
      "type": "function"
    },
    {
      "inputs": [],
      "name": "owner",
      "outputs": [
        {
          "internalType": "address",
          "name": "",
          "type": "address"
        }
      ],
      "stateMutability": "view",
      "type": "function"
    },
    {
      "inputs": [
        {
          "internalType": "address",
          "name": "_minter",
          "type": "address"
        }
      ],
      "name": "removeMinter",
      "outputs": [],
      "stateMutability": "nonpayable",
      "type": "function"
    },
    {
      "inputs": [],
      "name": "symbol",
      "outputs": [
        {
          "internalType": "string",
          "name": "",
          "type": "string"
        }
      ],
      "stateMutability": "view",
      "type": "function"
    },
    {
      "inputs": [],
      "name": "totalSupply",
      "outputs": [
        {
          "internalType": "uint256",
          "name": "",
          "type": "uint256"
        }
      ],
      "stateMutability": "view",
      "type": "function"
    },
    {
      "inputs": [
        {
          "internalType": "address",
          "name": "_to",
          "type": "address"
        },
        {
          "internalType": "uint256",
          "name": "_value",
          "type": "uint256"
        }
      ],
      "name": "transfer",
      "outputs": [
        {
          "internalType": "bool",
          "name": "success",
          "type": "bool"
        }
      ],
      "stateMutability": "nonpayable",
      "type": "function"
    },
    {
      "inputs": [
        {
          "internalType": "address",
          "name": "_from",
          "type": "address"
        },
        {
          "internalType": "address",
          "name": "_to",
          "type": "address"
        },
        {
          "internalType": "uint256",
          "name": "_value",
          "type": "uint256"
        }
      ],
      "name": "transferFrom",
      "outputs": [
        {
          "internalType": "bool",
          "name": "success",
          "type": "bool"
        }
      ],
      "stateMutability": "nonpayable",
      "type": "function"
    },
    {
      "inputs": [
        {
          "internalType": "address",
          "name": "_newOwner",
          "type": "address"
        }
      ],
      "name": "transferOwnership",
      "outputs": [],
      "stateMutability": "nonpayable",
      "type": "function"
    }
  ],
  "bytecode": "0x60c0604052601660809081527f4149205369676e616c2052657761726420546f6b656e0000000000000000000060a0526000906200003e9082620002c4565b506040805180820190915260048152631054d49560e21b6020820152600190620000699082620002c4565b506002805460ff191660121790553480156200008457600080fd5b506040516200111338038062001113833981016040819052620000a79162000390565b600780546001600160a01b031916339081179091556000818152600660205260409020805460ff19166001179055600254620001009190620000ee9060ff16600a620004bf565b620000fa9084620004d7565b62000107565b5062000507565b6001600160a01b038216620001545760405162461bcd60e51b815260206004820152600f60248201526e496e76616c6964206164647265737360881b604482015260640160405180910390fd5b8060036000828254620001689190620004f1565b90915550506001600160a01b0382166000908152600460205260408120805483929062000197908490620004f1565b90915550506040518181526001600160a01b038316907f0f6798a560793a54c3bcfe86a93cde1e73087d944c0ea20544137d41213968859060200160405180910390a26040518181526001600160a01b038316906000907fddf252ad1be2c89b69c2b068fc378daa952ba7f163c4a11628f55a4df523b3ef9060200160405180910390a35050565b634e487b7160e01b600052604160045260246000fd5b600181811c908216806200024a57607f821691505b6020821081036200026b57634e487b7160e01b600052602260045260246000fd5b50919050565b601f821115620002bf57600081815260208120601f850160051c810160208610156200029a5750805b601f850160051c820191505b81811015620002bb57828155600101620002a6565b5050505b505050565b81516001600160401b03811115620002e057620002e06200021f565b620002f881620002f1845462000235565b8462000271565b602080601f831160018114620003305760008415620003175750858301515b600019600386901b1c1916600185901b178555620002bb565b600085815260208120601f198616915b82811015620003615788860151825594840194600190910190840162000340565b5085821015620003805787850151600019600388901b60f8161c191681555b5050505050600190811b01905550565b600060208284031215620003a357600080fd5b5051919050565b634e487b7160e01b600052601160045260246000fd5b600181815b8085111562000401578160001904821115620003e557620003e5620003aa565b80851615620003f357918102915b93841c9390800290620003c5565b509250929050565b6000826200041a57506001620004b9565b816200042957506000620004b9565b81600181146200044257600281146200044d576200046d565b6001915050620004b9565b60ff841115620004615762000461620003aa565b50506001821b620004b9565b5060208310610133831016604e8410600b841016171562000492575081810a620004b9565b6200049e8383620003c0565b8060001904821115620004b557620004b5620003aa565b0290505b92915050565b6000620004d060ff84168362000409565b9392505050565b8082028115828204841417620004b957620004b9620003aa565b80820180821115620004b957620004b9620003aa565b610bfc80620005176000396000f3fe608060405234801561001057600080fd5b50600436106101005760003560e01c806370a0823111610097578063a9059cbb11610066578063a9059cbb14610230578063aa271e1a14610243578063dd62ed3e14610266578063f2fde38b1461029157600080fd5b806370a08231146101ca5780638da5cb5b146101ea57806395d89b4114610215578063983b2d561461021d57600080fd5b80633092afd5116100d35780633092afd514610170578063313ce5671461018557806340c10f19146101a457806342966c68146101b757600080fd5b806306fdde0314610105578063095ea7b31461012357806318160ddd1461014657806323b872dd1461015d575b600080fd5b61010d6102a4565b60405161011a9190610978565b60405180910390f35b6101366101313660046109e2565b610332565b604051901515815260200161011a565b61014f60035481565b60405190815260200161011a565b61013661016b366004610a0c565b61039f565b61018361017e366004610a48565b610521565b005b6002546101929060ff1681565b60405160ff909116815260200161011a565b6101366101b23660046109e2565b610594565b6101366101c5366004610a6a565b610608565b61014f6101d8366004610a48565b60046020526000908152604090205481565b6007546101fd906001600160a01b031681565b6040516001600160a01b03909116815260200161011a565b61010d6106d7565b61018361022b366004610a48565b6106e4565b61013661023e3660046109e2565b61075a565b610136610251366004610a48565b60066020526000908152604090205460ff1681565b61014f610274366004610a83565b600560209081526000928352604080842090915290825290205481565b61018361029f366004610a48565b61082b565b600080546102b190610ab6565b80601f01602080910402602001604051908101604052809291908181526020018280546102dd90610ab6565b801561032a5780601f106102ff5761010080835404028352916020019161032a565b820191906000526020600020905b81548152906001019060200180831161030d57829003601f168201915b505050505081565b3360008181526005602090815260408083206001600160a01b038716808552925280832085905551919290917f8c5be1e5ebec7d5bd14f71427d1e84f3dd0314c0f7b2291e5b200ac8c7c3b9259061038d9086815260200190565b60405180910390a35060015b92915050565b6001600160a01b0383166000908152600460205260408120548211156103e05760405162461bcd60e51b81526004016103d790610af0565b60405180910390fd5b6001600160a01b03841660009081526005602090815260408083203384529091529020548211156104485760405162461bcd60e51b8152602060048201526012602482015271105b1b1bddd85b98d948195e18d95959195960721b60448201526064016103d7565b6001600160a01b03841660009081526004602052604081208054849290610470908490610b34565b90915550506001600160a01b0383166000908152600460205260408120805484929061049d908490610b47565b90915550506001600160a01b0384166000908152600560209081526040808320338452909152812080548492906104d5908490610b34565b92505081905550826001600160a01b0316846001600160a01b0316600080516020610ba78339815191528460405161050f91815260200190565b60405180910390a35060019392505050565b6007546001600160a01b0316331461054b5760405162461bcd60e51b81526004016103d790610b5a565b6001600160a01b038116600081815260066020526040808220805460ff19169055517fe94479a9f7e1952cc78f2d6baab678adc1b772d936c6583def489e524cb666929190a250565b3360009081526006602052604081205460ff16806105bc57506007546001600160a01b031633145b6105f55760405162461bcd60e51b815260206004820152600a6024820152692737ba1036b4b73a32b960b11b60448201526064016103d7565b6105ff838361089d565b50600192915050565b336000908152600460205260408120548211156106375760405162461bcd60e51b81526004016103d790610af0565b3360009081526004602052604081208054849290610656908490610b34565b92505081905550816003600082825461066f9190610b34565b909155505060405182815233907fcc16f5dbb4873280815c1ee09dbd06736cffcc184412cf7a71a0fdb75d397ca59060200160405180910390a26040518281526000903390600080516020610ba78339815191529060200160405180910390a3506001919050565b600180546102b190610ab6565b6007546001600160a01b0316331461070e5760405162461bcd60e51b81526004016103d790610b5a565b6001600160a01b038116600081815260066020526040808220805460ff19166001179055517f6ae172837ea30b801fbfcdd4108aa1d5bf8ff775444fd70256b44e6bf3dfc3f69190a250565b336000908152600460205260408120548211156107895760405162461bcd60e51b81526004016103d790610af0565b6001600160a01b0383166107af5760405162461bcd60e51b81526004016103d790610b7d565b33600090815260046020526040812080548492906107ce908490610b34565b90915550506001600160a01b038316600090815260046020526040812080548492906107fb908490610b47565b90915550506040518281526001600160a01b038416903390600080516020610ba78339815191529060200161038d565b6007546001600160a01b031633146108555760405162461bcd60e51b81526004016103d790610b5a565b6001600160a01b03811661087b5760405162461bcd60e51b81526004016103d790610b7d565b600780546001600160a01b0319166001600160a01b0392909216919091179055565b6001600160a01b0382166108c35760405162461bcd60e51b81526004016103d790610b7d565b80600360008282546108d59190610b47565b90915550506001600160a01b03821660009081526004602052604081208054839290610902908490610b47565b90915550506040518181526001600160a01b038316907f0f6798a560793a54c3bcfe86a93cde1e73087d944c0ea20544137d41213968859060200160405180910390a26040518181526001600160a01b03831690600090600080516020610ba78339815191529060200160405180910390a35050565b600060208083528351808285015260005b818110156109a557858101830151858201604001528201610989565b506000604082860101526040601f19601f8301168501019250505092915050565b80356001600160a01b03811681146109dd57600080fd5b919050565b600080604083850312156109f557600080fd5b6109fe836109c6565b946020939093013593505050565b600080600060608486031215610a2157600080fd5b610a2a846109c6565b9250610a38602085016109c6565b9150604084013590509250925092565b600060208284031215610a5a57600080fd5b610a63826109c6565b9392505050565b600060208284031215610a7c57600080fd5b5035919050565b60008060408385031215610a9657600080fd5b610a9f836109c6565b9150610aad602084016109c6565b90509250929050565b600181811c90821680610aca57607f821691505b602082108103610aea57634e487b7160e01b600052602260045260246000fd5b50919050565b602080825260149082015273496e73756666696369656e742062616c616e636560601b604082015260600190565b634e487b7160e01b600052601160045260246000fd5b8181038181111561039957610399610b1e565b8082018082111561039957610399610b1e565b6020808252600990820152682737ba1037bbb732b960b91b604082015260600190565b6020808252600f908201526e496e76616c6964206164647265737360881b60408201526060019056feddf252ad1be2c89b69c2b068fc378daa952ba7f163c4a11628f55a4df523b3efa2646970667358221220debd6d43982c485cd697da5b53df65b4c5d71f1e14d4e8e0b1d8dbb4c448631464736f6c63430008140033",
  "linkReferences": {},
  "deployedLinkReferences": {}
}