{
  "_format": "hh-sol-artifact-1",
  "contractName": "SignalStorage",
  "sourceName": "contracts/SignalStorage.sol",
  "abi": [
    {
      "anonymous": false,
      "inputs": [
        {
          "indexed": true,
          "internalType": "uint256",
          "name": "signalId",
          "type": "uint256"
        },
        {
          "indexed": false,
          "internalType": "string",
          "name": "symbol",
          "type": "string"
        },
        {
          "indexed": false,
          "internalType": "string",
          "name": "action",
          "type": "string"
        },
        {
          "indexed": false,
          "internalType": "uint256",
          "name": "confidence",
          "type": "uint256"
        },
        {
          "indexed": false,
          "internalType": "address",
          "name": "submitter",
          "type": "address"
        }
      ],
      "name": "NewSignal",
      "type": "event"
    },
    {
      "anonymous": false,
      "inputs": [
        {
          "indexed": true,
          "internalType": "uint256",
          "name": "sentimentId",
          "type": "uint256"
        },
        {
          "indexed": false,
          "internalType": "string",
          "name": "symbol",
          "type": "string"
        },
        {
          "indexed": false,
          "internalType": "string",
          "name": "sentiment",
          "type": "string"
        },
        {
          "indexed": false,
          "internalType": "uint256",
          "name": "score",
          "type": "uint256"
        }
      ],
      "name": "SentimentRecorded",
      "type": "event"
    },
    {
      "anonymous": false,
      "inputs": [
        {
          "indexed": true,
          "internalType": "uint256",
          "name": "signalId",
          "type": "uint256"
        },
        {
          "indexed": false,
          "internalType": "uint256",
          "name": "timestamp",
          "type": "uint256"
        }
      ],
      "name": "SignalExecuted",
      "type": "event"
    },
    {
      "inputs": [
        {
          "internalType": "uint256",
          "name": "_count",
          "type": "uint256"
        }
      ],
      "name": "getLatestSignals",
      "outputs": [
        {
          "components": [
            {
              "internalType": "uint256",
              "name": "id",
              "type": "uint256"
            },
            {
              "internalType": "string",
              "name": "symbol",
              "type": "string"
            },
            {
              "internalType": "string",
              "name": "action",
              "type": "string"
            },
            {
              "internalType": "uint256",
              "name": "confidence",
              "type": "uint256"
            },
            {
              "internalType": "uint256",
              "name": "entryPoint",
              "type": "uint256"
            },
            {
              "internalType": "uint256",
              "name": "stopLoss",
              "type": "uint256"
            },
            {
              "internalType": "uint256",
              "name": "takeProfit",
              "type": "uint256"
            },
            {
              "internalType": "uint256",
              "name": "timestamp",
              "type": "uint256"
            },
            {
              "internalType": "address",
              "name": "submitter",
              "type": "address"
            },
            {
              "internalType": "bool",
              "name": "executed",
              "type": "bool"
            }
          ],
          "internalType": "struct SignalStorage.Signal[]",
          "name": "",
          "type": "tuple[]"
        }
      ],
      "stateMutability": "view",
      "type": "function"
    },
    {
      "inputs": [
        {
          "internalType": "uint256",
          "name": "_sentimentId",
          "type": "uint256"
        }
      ],
      "name": "getSentiment",
      "outputs": [
        {
          "components": [
            {
              "internalType": "string",
              "name": "symbol",
              "type": "string"
            },
            {
              "internalType": "string",
              "name": "sentiment",
              "type": "string"
            },
            {
              "internalType": "uint256",
              "name": "score",
              "type": "uint256"
            },
            {
              "internalType": "uint256",
              "name": "timestamp",
              "type": "uint256"
            }
          ],
          "internalType": "struct SignalStorage.Sentiment",
          "name": "",
          "type": "tuple"
        }
      ],
      "stateMutability": "view",
      "type": "function"
    },
    {
      "inputs": [
        {
          "internalType": "uint256",
          "name": "_signalId",
          "type": "uint256"
        }
      ],
      "name": "getSignal",
      "outputs": [
        {
          "components": [
            {
              "internalType": "uint256",
              "name": "id",
              "type": "uint256"
            },
            {
              "internalType": "string",
              "name": "symbol",
              "type": "string"
            },
            {
              "internalType": "string",
              "name": "action",
              "type": "string"
            },
            {
              "internalType": "uint256",
              "name": "confidence",
              "type": "uint256"
            },
            {
              "internalType": "uint256",
              "name": "entryPoint",
              "type": "uint256"
            },
            {
              "internalType": "uint256",
              "name": "stopLoss",
              "type": "uint256"
            },
            {
              "internalType": "uint256",
              "name": "takeProfit",
              "type": "uint256"
            },
            {
              "internalType": "uint256",
              "name": "timestamp",
              "type": "uint256"
            },
            {
              "internalType": "address",
              "name": "submitter",
              "type": "address"
            },
            {
              "internalType": "bool",
              "name": "executed",
              "type": "bool"
            }
          ],
          "internalType": "struct SignalStorage.Signal",
          "name": "",
          "type": "tuple"
        }
      ],
      "stateMutability": "view",
      "type": "function"
    },
    {
      "inputs": [
        {
          "internalType": "address",
          "name": "_user",
          "type": "address"
        }
      ],
      "name": "getUserSignals",
      "outputs": [
        {
          "internalType": "uint256[]",
          "name": "",
          "type": "uint256[]"
        }
      ],
      "stateMutability": "view",
      "type": "function"
    },
    {
      "inputs": [
        {
          "internalType": "uint256",
          "name": "_signalId",
          "type": "uint256"
        }
      ],
      "name": "markSignalExecuted",
      "outputs": [],
      "stateMutability": "nonpayable",
      "type": "function"
    },
    {
      "inputs": [
        {
          "internalType": "string",
          "name": "_symbol",
          "type": "string"
        },
        {
          "internalType": "string",
          "name": "_sentiment",
          "type": "string"
        },
        {
          "internalType": "uint256",
          "name": "_score",
          "type": "uint256"
        }
      ],
      "name": "recordSentiment",
      "outputs": [
        {
          "internalType": "uint256",
          "name": "",
          "type": "uint256"
        }
      ],
      "stateMutability": "nonpayable",
      "type": "function"
    },
    {
      "inputs": [],
      "name": "sentimentCount",
      "outputs": [
        {
          "internalType": "uint256",
          "name": "",
          "type": "uint256"
        }
      ],
      "stateMutability": "view",
      "type": "function"
    },
    {
      "inputs": [
        {
          "internalType": "uint256",
          "name": "",
          "type": "uint256"
        }
      ],
      "name": "sentiments",
      "outputs": [
        {
          "internalType": "string",
          "name": "symbol",
          "type": "string"
        },
        {
          "internalType": "string",
          "name": "sentiment",
          "type": "string"
        },
        {
          "internalType": "uint256",
          "name": "score",
          "type": "uint256"
        },
        {
          "internalType": "uint256",
          "name": "timestamp",
          "type": "uint256"
        }
      ],
      "stateMutability": "view",
      "type": "function"
    },
    {
      "inputs": [],
      "name": "signalCount",
      "outputs": [
        {
          "internalType": "uint256",
          "name": "",
          "type": "uint256"
        }
      ],
      "stateMutability": "view",
      "type": "function"
    },
    {
      "inputs": [
        {
          "internalType": "uint256",
          "name": "",
          "type": "uint256"
        }
      ],
      "name": "signals",
      "outputs": [
        {
          "internalType": "uint256",
          "name": "id",
          "type": "uint256"
        },
        {
          "internalType": "string",
          "name": "symbol",
          "type": "string"
        },
        {
          "internalType": "string",
          "name": "action",
          "type": "string"
        },
        {
          "internalType": "uint256",
          "name": "confidence",
          "type": "uint256"
        },
        {
          "internalType": "uint256",
          "name": "entryPoint",
          "type": "uint256"
        },
        {
          "internalType": "uint256",
          "name": "stopLoss",
          "type": "uint256"
        },
        {
          "internalType": "uint256",
          "name": "takeProfit",
          "type": "uint256"
        },
        {
          "internalType": "uint256",
          "name": "timestamp",
          "type": "uint256"
        },
        {
          "internalType": "address",
          "name": "submitter",
          "type": "address"
        },
        {
          "internalType": "bool",
          "name": "executed",
          "type": "bool"
        }
      ],
      "stateMutability": "view",
      "type": "function"
    },
    {
      "inputs": [
        {
          "internalType": "string",
          "name": "_symbol",
          "type": "string"
        },
        {
          "internalType": "string",
          "name": "_action",
          "type": "string"
        },
        {
          "internalType": "uint256",
          "name": "_confidence",
          "type": "uint256"
        },
        {
          "internalType": "uint256",
          "name": "_entryPoint",
          "type": "uint256"
        },
        {
          "internalType": "uint256",
          "name": "_stopLoss",
          "type": "uint256"
        },
        {
          "internalType": "uint256",
          "name": "_takeProfit",
          "type": "uint256"
        }
      ],
      "name": "submitSignal",
      "outputs": [
        {
          "internalType": "uint256",
          "name": "",
          "type": "uint256"
        }
      ],
      "stateMutability": "nonpayable",
      "type": "function"
    },
    {
      "inputs": [
        {
          "internalType": "address",
          "name": "",
          "type": "address"
        },
        {
          "internalType": "uint256",
          "name": "",
          "type": "uint256"
        }
      ],
      "name": "userSignals",
      "outputs": [
        {
          "internalType": "uint256",
          "name": "",
          "type": "uint256"
        }
      ],
      "stateMutability": "view",
      "type": "function"
    }
  ],
  "bytecode": "0x608060405234801561001057600080fd5b50611778806100206000396000f3fe608060405234801561001057600080fd5b50600436106100b45760003560e01c8063828e58e211610071578063828e58e21461016657806383856d6214610186578063a034364b14610199578063ae0041aa146101bc578063c63137ba146101c5578063fa51d729146101d857600080fd5b806324e263fa146100b9578063447ec312146100df57806347c740cd146100ff5780634d694fcf146101285780634fd272371461014857806359a38c0914610151575b600080fd5b6100cc6100c7366004611101565b6101f8565b6040519081526020015b60405180910390f35b6100f26100ed366004611188565b610456565b6040516100d691906111e7565b61011261010d366004611188565b61062d565b6040516100d69a99989796959493929190611241565b61013b6101363660046112d1565b61079c565b6040516100d691906112f3565b6100cc60015481565b61016461015f366004611188565b610808565b005b610179610174366004611188565b610917565b6040516100d691906113d9565b6100cc6101943660046113ec565b610b1c565b6101ac6101a7366004611188565b610b4d565b6040516100d69493929190611416565b6100cc60005481565b6100cc6101d336600461144f565b610c85565b6101eb6101e6366004611188565b610d9a565b6040516100d691906114bc565b600060648511156102505760405162461bcd60e51b815260206004820152601960248201527f436f6e666964656e6365206d757374206265203c3d203130300000000000000060448201526064015b60405180910390fd5b60008751116102935760405162461bcd60e51b815260206004820152600f60248201526e14de5b589bdb081c995c5d5a5c9959608a1b6044820152606401610247565b60008651116102d65760405162461bcd60e51b815260206004820152600f60248201526e1058dd1a5bdb881c995c5d5a5c9959608a1b6044820152606401610247565b6000805490806102e583611534565b909155505060408051610140810182526000805480835260208084018c81528486018c9052606085018b9052608085018a905260a0850189905260c085018890524260e086015233610100860152610120850184905291835260029052929020815181559151909190600182019061035d90826115d6565b506040820151600282019061037290826115d6565b5060608201516003820155608082015160048083019190915560a0830151600583015560c0830151600683015560e0830151600783015561010083015160089092018054610120909401511515600160a01b026001600160a81b03199094166001600160a01b0390931692909217929092179055336000818152602092835260408082208254815460018101835591845294832001939093555491517fd06013dc1af78f099f522026ebcb4fa1d33553597142e7c866e657b3e004863791610440918b918b918b9190611696565b60405180910390a2506000549695505050505050565b6104816040518060800160405280606081526020016060815260200160008152602001600081525090565b60008211801561049357506001548211155b6104d65760405162461bcd60e51b8152602060048201526014602482015273125b9d985b1a59081cd95b9d1a5b595b9d08125160621b6044820152606401610247565b600082815260036020526040908190208151608081019092528054829082906104fe9061154d565b80601f016020809104026020016040519081016040528092919081815260200182805461052a9061154d565b80156105775780601f1061054c57610100808354040283529160200191610577565b820191906000526020600020905b81548152906001019060200180831161055a57829003601f168201915b505050505081526020016001820180546105909061154d565b80601f01602080910402602001604051908101604052809291908181526020018280546105bc9061154d565b80156106095780601f106105de57610100808354040283529160200191610609565b820191906000526020600020905b8154815290600101906020018083116105ec57829003601f168201915b50505050508152602001600282015481526020016003820154815250509050919050565b6002602052600090815260409020805460018201805491929161064f9061154d565b80601f016020809104026020016040519081016040528092919081815260200182805461067b9061154d565b80156106c85780601f1061069d576101008083540402835291602001916106c8565b820191906000526020600020905b8154815290600101906020018083116106ab57829003601f168201915b5050505050908060020180546106dd9061154d565b80601f01602080910402602001604051908101604052809291908181526020018280546107099061154d565b80156107565780601f1061072b57610100808354040283529160200191610756565b820191906000526020600020905b81548152906001019060200180831161073957829003601f168201915b505050506003830154600484015460058501546006860154600787015460089097015495969395929450909290916001600160a01b03811690600160a01b900460ff168a565b6001600160a01b0381166000908152600460209081526040918290208054835181840281018401909452808452606093928301828280156107fc57602002820191906000526020600020905b8154815260200190600101908083116107e8575b50505050509050919050565b60008111801561081a57506000548111155b61085a5760405162461bcd60e51b8152602060048201526011602482015270125b9d985b1a59081cda59db985b081251607a1b6044820152606401610247565b6000818152600260205260409020600801546001600160a01b031633146108b65760405162461bcd60e51b815260206004820152601060248201526f2737ba1039b4b3b730b61037bbb732b960811b6044820152606401610247565b60008181526002602052604090819020600801805460ff60a01b1916600160a01b1790555181907fa39854bb4b2326a9d8c7c72f68c486b2e454f7ac9a594a45093c8559627efc029061090c9042815260200190565b60405180910390a250565b61091f611000565b60008211801561093157506000548211155b6109715760405162461bcd60e51b8152602060048201526011602482015270125b9d985b1a59081cda59db985b081251607a1b6044820152606401610247565b6002600083815260200190815260200160002060405180610140016040529081600082015481526020016001820180546109aa9061154d565b80601f01602080910402602001604051908101604052809291908181526020018280546109d69061154d565b8015610a235780601f106109f857610100808354040283529160200191610a23565b820191906000526020600020905b815481529060010190602001808311610a0657829003601f168201915b50505050508152602001600282018054610a3c9061154d565b80601f0160208091040260200160405190810160405280929190818152602001828054610a689061154d565b8015610ab55780601f10610a8a57610100808354040283529160200191610ab5565b820191906000526020600020905b815481529060010190602001808311610a9857829003601f168201915b505050918352505060038201546020820152600482015460408201526005820154606082015260068201546080820152600782015460a08201526008909101546001600160a01b03811660c0830152600160a01b900460ff16151560e09091015292915050565b60046020528160005260406000208181548110610b3857600080fd5b90600052602060002001600091509150505481565b600360205260009081526040902080548190610b689061154d565b80601f0160208091040260200160405190810160405280929190818152602001828054610b949061154d565b8015610be15780601f10610bb657610100808354040283529160200191610be1565b820191906000526020600020905b815481529060010190602001808311610bc457829003601f168201915b505050505090806001018054610bf69061154d565b80601f0160208091040260200160405190810160405280929190818152602001828054610c229061154d565b8015610c6f5780601f10610c4457610100808354040283529160200191610c6f565b820191906000526020600020905b815481529060010190602001808311610c5257829003601f168201915b5050505050908060020154908060030154905084565b60006064821115610ccf5760405162461bcd60e51b8152602060048201526014602482015273053636f7265206d757374206265203c3d203130360641b6044820152606401610247565b60018054906000610cdf83611534565b9091555050604080516080810182528581526020808201869052818301859052426060830152600154600090815260039091529190912081518190610d2490826115d6565b5060208201516001820190610d3990826115d6565b5060408201518160020155606082015181600301559050506001547fe3bbe92de17dea26db052c8397f5513d3a893e1c11136c63a6b7f84543d8beb8858585604051610d87939291906116dd565b60405180910390a2506001549392505050565b6060600080548311610dac5782610db0565b6000545b905060008167ffffffffffffffff811115610dcd57610dcd61105e565b604051908082528060200260200182016040528015610e0657816020015b610df3611000565b815260200190600190039081610deb5790505b50905060005b82811015610ff8576002600082600054610e269190611713565b81526020019081526020016000206040518061014001604052908160008201548152602001600182018054610e5a9061154d565b80601f0160208091040260200160405190810160405280929190818152602001828054610e869061154d565b8015610ed35780601f10610ea857610100808354040283529160200191610ed3565b820191906000526020600020905b815481529060010190602001808311610eb657829003601f168201915b50505050508152602001600282018054610eec9061154d565b80601f0160208091040260200160405190810160405280929190818152602001828054610f189061154d565b8015610f655780601f10610f3a57610100808354040283529160200191610f65565b820191906000526020600020905b815481529060010190602001808311610f4857829003601f168201915b505050918352505060038201546020820152600482015460408201526005820154606082015260068201546080820152600782015460a08201526008909101546001600160a01b03811660c0830152600160a01b900460ff16151560e0909101528251839083908110610fda57610fda61172c565b60200260200101819052508080610ff090611534565b915050610e0c565b509392505050565b604051806101400160405280600081526020016060815260200160608152602001600081526020016000815260200160008152602001600081526020016000815260200160006001600160a01b031681526020016000151581525090565b634e487b7160e01b600052604160045260246000fd5b600082601f83011261108557600080fd5b813567ffffffffffffffff808211156110a0576110a061105e565b604051601f8301601f19908116603f011681019082821181831017156110c8576110c861105e565b816040528381528660208588010111156110e157600080fd5b836020870160208301376000602085830101528094505050505092915050565b60008060008060008060c0878903121561111a57600080fd5b863567ffffffffffffffff8082111561113257600080fd5b61113e8a838b01611074565b9750602089013591508082111561115457600080fd5b5061116189828a01611074565b96999698505050506040850135946060810135946080820135945060a09091013592509050565b60006020828403121561119a57600080fd5b5035919050565b6000815180845260005b818110156111c7576020818501810151868301820152016111ab565b506000602082860101526020601f19601f83011685010191505092915050565b60208152600082516080602084015261120360a08401826111a1565b90506020840151601f1984830301604085015261122082826111a1565b91505060408401516060840152606084015160808401528091505092915050565b60006101408c835280602084015261125b8184018d6111a1565b9050828103604084015261126f818c6111a1565b606084019a909a525050608081019690965260a086019490945260c085019290925260e08401526001600160a01b03166101008301521515610120909101529392505050565b80356001600160a01b03811681146112cc57600080fd5b919050565b6000602082840312156112e357600080fd5b6112ec826112b5565b9392505050565b6020808252825182820181905260009190848201906040850190845b8181101561132b5783518352928401929184019160010161130f565b50909695505050505050565b6000610140825184526020830151816020860152611357828601826111a1565b9150506040830151848203604086015261137182826111a1565b915050606083015160608501526080830151608085015260a083015160a085015260c083015160c085015260e083015160e0850152610100808401516113c1828701826001600160a01b03169052565b50506101209283015115159390920192909252919050565b6020815260006112ec6020830184611337565b600080604083850312156113ff57600080fd5b611408836112b5565b946020939093013593505050565b60808152600061142960808301876111a1565b828103602084015261143b81876111a1565b604084019590955250506060015292915050565b60008060006060848603121561146457600080fd5b833567ffffffffffffffff8082111561147c57600080fd5b61148887838801611074565b9450602086013591508082111561149e57600080fd5b506114ab86828701611074565b925050604084013590509250925092565b6000602080830181845280855180835260408601915060408160051b870101925083870160005b8281101561151157603f198886030184526114ff858351611337565b945092850192908501906001016114e3565b5092979650505050505050565b634e487b7160e01b600052601160045260246000fd5b6000600182016115465761154661151e565b5060010190565b600181811c9082168061156157607f821691505b60208210810361158157634e487b7160e01b600052602260045260246000fd5b50919050565b601f8211156115d157600081815260208120601f850160051c810160208610156115ae5750805b601f850160051c820191505b818110156115cd578281556001016115ba565b5050505b505050565b815167ffffffffffffffff8111156115f0576115f061105e565b611604816115fe845461154d565b84611587565b602080601f83116001811461163957600084156116215750858301515b600019600386901b1c1916600185901b1785556115cd565b600085815260208120601f198616915b8281101561166857888601518255948401946001909101908401611649565b50858210156116865787850151600019600388901b60f8161c191681555b5050505050600190811b01905550565b6080815260006116a960808301876111a1565b82810360208401526116bb81876111a1565b604084019590955250506001600160a01b039190911660609091015292915050565b6060815260006116f060608301866111a1565b828103602084015261170281866111a1565b915050826040830152949350505050565b818103818111156117265761172661151e565b92915050565b634e487b7160e01b600052603260045260246000fdfea26469706673582212204fef80c24786999ad437136fc0937fc1ffb34e74d7df809b487511599e1af40c64736f6c63430008140033",
  "linkReferences": {},
  "deployedLinkReferences": {}
}