{
  "_format": "hh-sol-artifact-1",
  "contractName": "SignalStorage",
  "sourceName": "contracts/SignalStorage.sol",
  "abi": [
    {
      "anonymous": false,
      "inputs": [
        {
          "indexed": false,
          "internalType": "string",
          "name": "coin",
          "type": "string"
        },
        {
          "indexed": false,
          "internalType": "string",
          "name": "sentiment",
          "type": "string"
        },
        {
          "indexed": false,
          "internalType": "uint256",
          "name": "timestamp",
          "type": "uint256"
        }
      ],
      "name": "SentimentRecorded",
      "type": "event"
    },
    {
      "anonymous": false,
      "inputs": [
        {
          "indexed": true,
          "internalType": "uint256",
          "name": "signalId",
          "type": "uint256"
        },
        {
          "indexed": false,
          "internalType": "string",
          "name": "coin",
          "type": "string"
        },
        {
          "indexed": false,
          "internalType": "string",
          "name": "action",
          "type": "string"
        },
        {
          "indexed": false,
          "internalType": "uint256",
          "name": "confidence",
          "type": "uint256"
        },
        {
          "indexed": false,
          "internalType": "uint256",
          "name": "timestamp",
          "type": "uint256"
        }
      ],
      "name": "SignalSubmitted",
      "type": "event"
    },
    {
      "inputs": [
        {
          "internalType": "uint256",
          "name": "_signalId",
          "type": "uint256"
        }
      ],
      "name": "getSignal",
      "outputs": [
        {
          "components": [
            {
              "internalType": "string",
              "name": "coin",
              "type": "string"
            },
            {
              "internalType": "string",
              "name": "action",
              "type": "string"
            },
            {
              "internalType": "uint256",
              "name": "confidence",
              "type": "uint256"
            },
            {
              "internalType": "uint256",
              "name": "entryPoint",
              "type": "uint256"
            },
            {
              "internalType": "uint256",
              "name": "stopLoss",
              "type": "uint256"
            },
            {
              "internalType": "uint256",
              "name": "takeProfit",
              "type": "uint256"
            },
            {
              "internalType": "string",
              "name": "reasoning",
              "type": "string"
            },
            {
              "internalType": "uint256",
              "name": "timestamp",
              "type": "uint256"
            },
            {
              "internalType": "address",
              "name": "submitter",
              "type": "address"
            }
          ],
          "internalType": "struct SignalStorage.Signal",
          "name": "",
          "type": "tuple"
        }
      ],
      "stateMutability": "view",
      "type": "function"
    },
    {
      "inputs": [
        {
          "internalType": "string",
          "name": "_coin",
          "type": "string"
        }
      ],
      "name": "getSignalsByCoin",
      "outputs": [
        {
          "components": [
            {
              "internalType": "string",
              "name": "coin",
              "type": "string"
            },
            {
              "internalType": "string",
              "name": "action",
              "type": "string"
            },
            {
              "internalType": "uint256",
              "name": "confidence",
              "type": "uint256"
            },
            {
              "internalType": "uint256",
              "name": "entryPoint",
              "type": "uint256"
            },
            {
              "internalType": "uint256",
              "name": "stopLoss",
              "type": "uint256"
            },
            {
              "internalType": "uint256",
              "name": "takeProfit",
              "type": "uint256"
            },
            {
              "internalType": "string",
              "name": "reasoning",
              "type": "string"
            },
            {
              "internalType": "uint256",
              "name": "timestamp",
              "type": "uint256"
            },
            {
              "internalType": "address",
              "name": "submitter",
              "type": "address"
            }
          ],
          "internalType": "struct SignalStorage.Signal[]",
          "name": "",
          "type": "tuple[]"
        }
      ],
      "stateMutability": "view",
      "type": "function"
    },
    {
      "inputs": [],
      "name": "getTotalSignals",
      "outputs": [
        {
          "internalType": "uint256",
          "name": "",
          "type": "uint256"
        }
      ],
      "stateMutability": "view",
      "type": "function"
    },
    {
      "inputs": [
        {
          "internalType": "string",
          "name": "_coin",
          "type": "string"
        },
        {
          "internalType": "string",
          "name": "_sentiment",
          "type": "string"
        }
      ],
      "name": "recordSentiment",
      "outputs": [],
      "stateMutability": "nonpayable",
      "type": "function"
    },
    {
      "inputs": [
        {
          "internalType": "uint256",
          "name": "",
          "type": "uint256"
        }
      ],
      "name": "signals",
      "outputs": [
        {
          "internalType": "string",
          "name": "coin",
          "type": "string"
        },
        {
          "internalType": "string",
          "name": "action",
          "type": "string"
        },
        {
          "internalType": "uint256",
          "name": "confidence",
          "type": "uint256"
        },
        {
          "internalType": "uint256",
          "name": "entryPoint",
          "type": "uint256"
        },
        {
          "internalType": "uint256",
          "name": "stopLoss",
          "type": "uint256"
        },
        {
          "internalType": "uint256",
          "name": "takeProfit",
          "type": "uint256"
        },
        {
          "internalType": "string",
          "name": "reasoning",
          "type": "string"
        },
        {
          "internalType": "uint256",
          "name": "timestamp",
          "type": "uint256"
        },
        {
          "internalType": "address",
          "name": "submitter",
          "type": "address"
        }
      ],
      "stateMutability": "view",
      "type": "function"
    },
    {
      "inputs": [
        {
          "internalType": "string",
          "name": "",
          "type": "string"
        },
        {
          "internalType": "uint256",
          "name": "",
          "type": "uint256"
        }
      ],
      "name": "signalsByCoin",
      "outputs": [
        {
          "internalType": "string",
          "name": "coin",
          "type": "string"
        },
        {
          "internalType": "string",
          "name": "action",
          "type": "string"
        },
        {
          "internalType": "uint256",
          "name": "confidence",
          "type": "uint256"
        },
        {
          "internalType": "uint256",
          "name": "entryPoint",
          "type": "uint256"
        },
        {
          "internalType": "uint256",
          "name": "stopLoss",
          "type": "uint256"
        },
        {
          "internalType": "uint256",
          "name": "takeProfit",
          "type": "uint256"
        },
        {
          "internalType": "string",
          "name": "reasoning",
          "type": "string"
        },
        {
          "internalType": "uint256",
          "name": "timestamp",
          "type": "uint256"
        },
        {
          "internalType": "address",
          "name": "submitter",
          "type": "address"
        }
      ],
      "stateMutability": "view",
      "type": "function"
    },
    {
      "inputs": [
        {
          "internalType": "string",
          "name": "_coin",
          "type": "string"
        },
        {
          "internalType": "string",
          "name": "_action",
          "type": "string"
        },
        {
          "internalType": "uint256",
          "name": "_confidence",
          "type": "uint256"
        },
        {
          "internalType": "uint256",
          "name": "_entryPoint",
          "type": "uint256"
        },
        {
          "internalType": "uint256",
          "name": "_stopLoss",
          "type": "uint256"
        },
        {
          "internalType": "uint256",
          "name": "_takeProfit",
          "type": "uint256"
        },
        {
          "internalType": "string",
          "name": "_reasoning",
          "type": "string"
        }
      ],
      "name": "submitSignal",
      "outputs": [
        {
          "internalType": "uint256",
          "name": "",
          "type": "uint256"
        }
      ],
      "stateMutability": "nonpayable",
      "type": "function"
    }
  ],
  "bytecode": "0x608060405234801561001057600080fd5b506111e4806100206000396000f3fe608060405234801561001057600080fd5b506004361061007d5760003560e01c806347c740cd1161005b57806347c740cd146100e9578063828e58e2146100fc578063b50ec46b1461011c578063d2fa2fb11461013c57600080fd5b80630779b4ec1461008257806317d2feaf146100b35780632766d05a146100d4575b600080fd5b610095610090366004610c03565b610144565b6040516100aa99989796959493929190610c98565b60405180910390f35b6100c66100c1366004610d14565b610360565b6040519081526020016100aa565b6100e76100e2366004610dc3565b61059b565b005b6100956100f7366004610e27565b6105da565b61010f61010a366004610e27565b61060d565b6040516100aa9190610ee4565b61012f61012a366004610efe565b6108e1565b6040516100aa9190610f3b565b6000546100c6565b8151602081840181018051600182529282019185019190912091905280548290811061016f57600080fd5b90600052602060002090600902016000915091505080600001805461019390610f9d565b80601f01602080910402602001604051908101604052809291908181526020018280546101bf90610f9d565b801561020c5780601f106101e15761010080835404028352916020019161020c565b820191906000526020600020905b8154815290600101906020018083116101ef57829003601f168201915b50505050509080600101805461022190610f9d565b80601f016020809104026020016040519081016040528092919081815260200182805461024d90610f9d565b801561029a5780601f1061026f5761010080835404028352916020019161029a565b820191906000526020600020905b81548152906001019060200180831161027d57829003601f168201915b5050505050908060020154908060030154908060040154908060050154908060060180546102c790610f9d565b80601f01602080910402602001604051908101604052809291908181526020018280546102f390610f9d565b80156103405780601f1061031557610100808354040283529160200191610340565b820191906000526020600020905b81548152906001019060200180831161032357829003601f168201915b5050505060078301546008909301549192916001600160a01b0316905089565b604080516101208101825288815260208101889052908101869052606081018590526080810184905260a0810183905260c081018290524260e08201523361010082015260008054600181018255818052825191929182916009027f290decd9548b62a8d60345a988386fc84ba6bc95484008f6362f93160ef3e563019081906103ea9082611026565b50602082015160018201906103ff9082611026565b5060408201516002820155606082015160038201556080820151600482015560a0820151600582015560c0820151600682019061043c9082611026565b5060e0820151600782015561010090910151600890910180546001600160a01b0319166001600160a01b03909216919091179055604051600190610481908b906110e6565b9081526040516020918190038201902080546001810182556000918252919020825183926009029091019081906104b89082611026565b50602082015160018201906104cd9082611026565b5060408201516002820155606082015160038201556080820151600482015560a0820151600582015560c0820151600682019061050a9082611026565b5060e0820151600782015561010090910151600890910180546001600160a01b0319166001600160a01b039092169190911790556000805461054e90600190611102565b9050807fe7b709cbfa2297783b68d975a79da13c5f2dc208a619024bb6b65fe037385e3f8b8b8b426040516105869493929190611129565b60405180910390a29998505050505050505050565b7f076062081c103072f77c784ac1d8606bde6acb223d89b830f98000259ca9c1998282426040516105ce93929190611162565b60405180910390a15050565b600081815481106105ea57600080fd5b906000526020600020906009020160009150905080600001805461019390610f9d565b610665604051806101200160405280606081526020016060815260200160008152602001600081526020016000815260200160008152602001606081526020016000815260200160006001600160a01b031681525090565b60005482106106b25760405162461bcd60e51b815260206004820152601560248201527414da59db985b08191bd95cc81b9bdd08195e1a5cdd605a1b604482015260640160405180910390fd5b600082815481106106c5576106c5611198565b9060005260206000209060090201604051806101200160405290816000820180546106ef90610f9d565b80601f016020809104026020016040519081016040528092919081815260200182805461071b90610f9d565b80156107685780601f1061073d57610100808354040283529160200191610768565b820191906000526020600020905b81548152906001019060200180831161074b57829003601f168201915b5050505050815260200160018201805461078190610f9d565b80601f01602080910402602001604051908101604052809291908181526020018280546107ad90610f9d565b80156107fa5780601f106107cf576101008083540402835291602001916107fa565b820191906000526020600020905b8154815290600101906020018083116107dd57829003601f168201915b505050505081526020016002820154815260200160038201548152602001600482015481526020016005820154815260200160068201805461083b90610f9d565b80601f016020809104026020016040519081016040528092919081815260200182805461086790610f9d565b80156108b45780601f10610889576101008083540402835291602001916108b4565b820191906000526020600020905b81548152906001019060200180831161089757829003601f168201915b5050509183525050600782015460208201526008909101546001600160a01b031660409091015292915050565b60606001826040516108f391906110e6565b9081526020016040518091039020805480602002602001604051908101604052809291908181526020016000905b82821015610b5557838290600052602060002090600902016040518061012001604052908160008201805461095590610f9d565b80601f016020809104026020016040519081016040528092919081815260200182805461098190610f9d565b80156109ce5780601f106109a3576101008083540402835291602001916109ce565b820191906000526020600020905b8154815290600101906020018083116109b157829003601f168201915b505050505081526020016001820180546109e790610f9d565b80601f0160208091040260200160405190810160405280929190818152602001828054610a1390610f9d565b8015610a605780601f10610a3557610100808354040283529160200191610a60565b820191906000526020600020905b815481529060010190602001808311610a4357829003601f168201915b5050505050815260200160028201548152602001600382015481526020016004820154815260200160058201548152602001600682018054610aa190610f9d565b80601f0160208091040260200160405190810160405280929190818152602001828054610acd90610f9d565b8015610b1a5780601f10610aef57610100808354040283529160200191610b1a565b820191906000526020600020905b815481529060010190602001808311610afd57829003601f168201915b505050918352505060078201546020808301919091526008909201546001600160a01b03166040909101529082526001929092019101610921565b505050509050919050565b634e487b7160e01b600052604160045260246000fd5b600082601f830112610b8757600080fd5b813567ffffffffffffffff80821115610ba257610ba2610b60565b604051601f8301601f19908116603f01168101908282118183101715610bca57610bca610b60565b81604052838152866020858801011115610be357600080fd5b836020870160208301376000602085830101528094505050505092915050565b60008060408385031215610c1657600080fd5b823567ffffffffffffffff811115610c2d57600080fd5b610c3985828601610b76565b95602094909401359450505050565b60005b83811015610c63578181015183820152602001610c4b565b50506000910152565b60008151808452610c84816020860160208601610c48565b601f01601f19169290920160200192915050565b6000610120808352610cac8184018d610c6c565b90508281036020840152610cc0818c610c6c565b90508960408401528860608401528760808401528660a084015282810360c0840152610cec8187610c6c565b60e084019590955250506001600160a01b039190911661010090910152979650505050505050565b600080600080600080600060e0888a031215610d2f57600080fd5b873567ffffffffffffffff80821115610d4757600080fd5b610d538b838c01610b76565b985060208a0135915080821115610d6957600080fd5b610d758b838c01610b76565b975060408a0135965060608a0135955060808a0135945060a08a0135935060c08a0135915080821115610da757600080fd5b50610db48a828b01610b76565b91505092959891949750929550565b60008060408385031215610dd657600080fd5b823567ffffffffffffffff80821115610dee57600080fd5b610dfa86838701610b76565b93506020850135915080821115610e1057600080fd5b50610e1d85828601610b76565b9150509250929050565b600060208284031215610e3957600080fd5b5035919050565b60006101208251818552610e5682860182610c6c565b91505060208301518482036020860152610e708282610c6c565b91505060408301516040850152606083015160608501526080830151608085015260a083015160a085015260c083015184820360c0860152610eb28282610c6c565b91505060e083015160e085015261010080840151610eda828701826001600160a01b03169052565b5090949350505050565b602081526000610ef76020830184610e40565b9392505050565b600060208284031215610f1057600080fd5b813567ffffffffffffffff811115610f2757600080fd5b610f3384828501610b76565b949350505050565b6000602080830181845280855180835260408601915060408160051b870101925083870160005b82811015610f9057603f19888603018452610f7e858351610e40565b94509285019290850190600101610f62565b5092979650505050505050565b600181811c90821680610fb157607f821691505b602082108103610fd157634e487b7160e01b600052602260045260246000fd5b50919050565b601f82111561102157600081815260208120601f850160051c81016020861015610ffe5750805b601f850160051c820191505b8181101561101d5782815560010161100a565b5050505b505050565b815167ffffffffffffffff81111561104057611040610b60565b6110548161104e8454610f9d565b84610fd7565b602080601f83116001811461108957600084156110715750858301515b600019600386901b1c1916600185901b17855561101d565b600085815260208120601f198616915b828110156110b857888601518255948401946001909101908401611099565b50858210156110d65787850151600019600388901b60f8161c191681555b5050505050600190811b01905550565b600082516110f8818460208701610c48565b9190910192915050565b8181038181111561112357634e487b7160e01b600052601160045260246000fd5b92915050565b60808152600061113c6080830187610c6c565b828103602084015261114e8187610c6c565b604084019590955250506060015292915050565b6060815260006111756060830186610c6c565b82810360208401526111878186610c6c565b915050826040830152949350505050565b634e487b7160e01b600052603260045260246000fdfea2646970667358221220a4eb3e71eaf6dd37a9e04a6cb39b490d2e470c5d39cb71e17049cb87ddde71ab64736f6c63430008140033",
  "linkReferences": {},
  "deployedLinkReferences": {}
}