{
  "_format": "hh-sol-artifact-1",
  "contractName": "TradeExecutor",
  "sourceName": "contracts/TradeExecutor.sol",
  "abi": [
    {
      "anonymous": false,
      "inputs": [
        {
          "indexed": true,
          "internalType": "uint256",
          "name": "tradeId",
          "type": "uint256"
        },
        {
          "indexed": false,
          "internalType": "string",
          "name": "symbol",
          "type": "string"
        },
        {
          "indexed": false,
          "internalType": "uint256",
          "name": "stopPrice",
          "type": "uint256"
        },
        {
          "indexed": false,
          "internalType": "uint256",
          "name": "timestamp",
          "type": "uint256"
        }
      ],
      "name": "AutoStopLoss",
      "type": "event"
    },
    {
      "anonymous": false,
      "inputs": [
        {
          "indexed": false,
          "internalType": "string",
          "name": "symbol",
          "type": "string"
        },
        {
          "indexed": false,
          "internalType": "string",
          "name": "riskLevel",
          "type": "string"
        },
        {
          "indexed": false,
          "internalType": "string",
          "name": "message",
          "type": "string"
        },
        {
          "indexed": false,
          "internalType": "uint256",
          "name": "timestamp",
          "type": "uint256"
        }
      ],
      "name": "RiskAlert",
      "type": "event"
    },
    {
      "anonymous": false,
      "inputs": [
        {
          "indexed": true,
          "internalType": "uint256",
          "name": "tradeId",
          "type": "uint256"
        },
        {
          "indexed": false,
          "internalType": "string",
          "name": "symbol",
          "type": "string"
        },
        {
          "indexed": false,
          "internalType": "string",
          "name": "side",
          "type": "string"
        },
        {
          "indexed": false,
          "internalType": "uint256",
          "name": "amount",
          "type": "uint256"
        },
        {
          "indexed": false,
          "internalType": "uint256",
          "name": "price",
          "type": "uint256"
        },
        {
          "indexed": false,
          "internalType": "address",
          "name": "trader",
          "type": "address"
        },
        {
          "indexed": false,
          "internalType": "uint256",
          "name": "timestamp",
          "type": "uint256"
        }
      ],
      "name": "TradeExecuted",
      "type": "event"
    },
    {
      "inputs": [
        {
          "internalType": "string",
          "name": "_symbol",
          "type": "string"
        },
        {
          "internalType": "string",
          "name": "_side",
          "type": "string"
        },
        {
          "internalType": "uint256",
          "name": "_amount",
          "type": "uint256"
        },
        {
          "internalType": "uint256",
          "name": "_price",
          "type": "uint256"
        }
      ],
      "name": "executeTrade",
      "outputs": [
        {
          "internalType": "uint256",
          "name": "",
          "type": "uint256"
        }
      ],
      "stateMutability": "nonpayable",
      "type": "function"
    },
    {
      "inputs": [],
      "name": "getTotalTrades",
      "outputs": [
        {
          "internalType": "uint256",
          "name": "",
          "type": "uint256"
        }
      ],
      "stateMutability": "view",
      "type": "function"
    },
    {
      "inputs": [
        {
          "internalType": "uint256",
          "name": "_tradeId",
          "type": "uint256"
        }
      ],
      "name": "getTrade",
      "outputs": [
        {
          "components": [
            {
              "internalType": "uint256",
              "name": "tradeId",
              "type": "uint256"
            },
            {
              "internalType": "string",
              "name": "symbol",
              "type": "string"
            },
            {
              "internalType": "string",
              "name": "side",
              "type": "string"
            },
            {
              "internalType": "uint256",
              "name": "amount",
              "type": "uint256"
            },
            {
              "internalType": "uint256",
              "name": "price",
              "type": "uint256"
            },
            {
              "internalType": "uint256",
              "name": "timestamp",
              "type": "uint256"
            },
            {
              "internalType": "address",
              "name": "trader",
              "type": "address"
            },
            {
              "internalType": "bool",
              "name": "executed",
              "type": "bool"
            }
          ],
          "internalType": "struct TradeExecutor.Trade",
          "name": "",
          "type": "tuple"
        }
      ],
      "stateMutability": "view",
      "type": "function"
    },
    {
      "inputs": [
        {
          "internalType": "address",
          "name": "_user",
          "type": "address"
        }
      ],
      "name": "getUserTrades",
      "outputs": [
        {
          "components": [
            {
              "internalType": "uint256",
              "name": "tradeId",
              "type": "uint256"
            },
            {
              "internalType": "string",
              "name": "symbol",
              "type": "string"
            },
            {
              "internalType": "string",
              "name": "side",
              "type": "string"
            },
            {
              "internalType": "uint256",
              "name": "amount",
              "type": "uint256"
            },
            {
              "internalType": "uint256",
              "name": "price",
              "type": "uint256"
            },
            {
              "internalType": "uint256",
              "name": "timestamp",
              "type": "uint256"
            },
            {
              "internalType": "address",
              "name": "trader",
              "type": "address"
            },
            {
              "internalType": "bool",
              "name": "executed",
              "type": "bool"
            }
          ],
          "internalType": "struct TradeExecutor.Trade[]",
          "name": "",
          "type": "tuple[]"
        }
      ],
      "stateMutability": "view",
      "type": "function"
    },
    {
      "inputs": [
        {
          "internalType": "string",
          "name": "_symbol",
          "type": "string"
        },
        {
          "internalType": "string",
          "name": "_riskLevel",
          "type": "string"
        },
        {
          "internalType": "string",
          "name": "_message",
          "type": "string"
        }
      ],
      "name": "recordRiskAlert",
      "outputs": [],
      "stateMutability": "nonpayable",
      "type": "function"
    },
    {
      "inputs": [],
      "name": "totalPnL",
      "outputs": [
        {
          "internalType": "uint256",
          "name": "",
          "type": "uint256"
        }
      ],
      "stateMutability": "view",
      "type": "function"
    },
    {
      "inputs": [],
      "name": "totalTrades",
      "outputs": [
        {
          "internalType": "uint256",
          "name": "",
          "type": "uint256"
        }
      ],
      "stateMutability": "view",
      "type": "function"
    },
    {
      "inputs": [
        {
          "internalType": "uint256",
          "name": "",
          "type": "uint256"
        }
      ],
      "name": "trades",
      "outputs": [
        {
          "internalType": "uint256",
          "name": "tradeId",
          "type": "uint256"
        },
        {
          "internalType": "string",
          "name": "symbol",
          "type": "string"
        },
        {
          "internalType": "string",
          "name": "side",
          "type": "string"
        },
        {
          "internalType": "uint256",
          "name": "amount",
          "type": "uint256"
        },
        {
          "internalType": "uint256",
          "name": "price",
          "type": "uint256"
        },
        {
          "internalType": "uint256",
          "name": "timestamp",
          "type": "uint256"
        },
        {
          "internalType": "address",
          "name": "trader",
          "type": "address"
        },
        {
          "internalType": "bool",
          "name": "executed",
          "type": "bool"
        }
      ],
      "stateMutability": "view",
      "type": "function"
    },
    {
      "inputs": [
        {
          "internalType": "address",
          "name": "",
          "type": "address"
        },
        {
          "internalType": "uint256",
          "name": "",
          "type": "uint256"
        }
      ],
      "name": "tradesByUser",
      "outputs": [
        {
          "internalType": "uint256",
          "name": "tradeId",
          "type": "uint256"
        },
        {
          "internalType": "string",
          "name": "symbol",
          "type": "string"
        },
        {
          "internalType": "string",
          "name": "side",
          "type": "string"
        },
        {
          "internalType": "uint256",
          "name": "amount",
          "type": "uint256"
        },
        {
          "internalType": "uint256",
          "name": "price",
          "type": "uint256"
        },
        {
          "internalType": "uint256",
          "name": "timestamp",
          "type": "uint256"
        },
        {
          "internalType": "address",
          "name": "trader",
          "type": "address"
        },
        {
          "internalType": "bool",
          "name": "executed",
          "type": "bool"
        }
      ],
      "stateMutability": "view",
      "type": "function"
    },
    {
      "inputs": [
        {
          "internalType": "uint256",
          "name": "_tradeId",
          "type": "uint256"
        },
        {
          "internalType": "string",
          "name": "_symbol",
          "type": "string"
        },
        {
          "internalType": "uint256",
          "name": "_stopPrice",
          "type": "uint256"
        }
      ],
      "name": "triggerAutoStopLoss",
      "outputs": [],
      "stateMutability": "nonpayable",
      "type": "function"
    }
  ],
  "bytecode": "0x608060405234801561001057600080fd5b506110fe806100206000396000f3fe608060405234801561001057600080fd5b506004361061009e5760003560e01c8063c1f4c61611610066578063c1f4c61614610149578063e275c9971461015c578063e2990cd014610165578063e6017d691461016e578063ebd34f501461018157600080fd5b8063045a3c85146100a35780631e6c598e146100b857806327b445d8146100e85780632db25e0514610109578063927c774214610129575b600080fd5b6100b66100b1366004610b0e565b610189565b005b6100cb6100c6366004610b5e565b610217565b6040516100df989796959493929190610bbd565b60405180910390f35b6100fb6100f6366004610c22565b61038b565b6040519081526020016100df565b61011c610117366004610b5e565b6105b6565b6040516100df9190610d19565b61013c610137366004610d4f565b6107f6565b6040516100df9190610d6a565b6100b6610157366004610dcc565b6109e3565b6100fb60035481565b6100fb60025481565b6100cb61017c366004610e54565b610a25565b6003546100fb565b60005483106101d65760405162461bcd60e51b8152602060048201526014602482015273151c98591948191bd95cc81b9bdd08195e1a5cdd60621b60448201526064015b60405180910390fd5b827f489cb671b69ebe1fa01c70a3ee4d9d554c9b0b5907d450514f887636ff2473ff83834260405161020a93929190610e7e565b60405180910390a2505050565b6000818154811061022757600080fd5b6000918252602090912060079091020180546001820180549193509061024c90610ea3565b80601f016020809104026020016040519081016040528092919081815260200182805461027890610ea3565b80156102c55780601f1061029a576101008083540402835291602001916102c5565b820191906000526020600020905b8154815290600101906020018083116102a857829003601f168201915b5050505050908060020180546102da90610ea3565b80601f016020809104026020016040519081016040528092919081815260200182805461030690610ea3565b80156103535780601f1061032857610100808354040283529160200191610353565b820191906000526020600020905b81548152906001019060200180831161033657829003601f168201915b50505050600383015460048401546005850154600690950154939491939092506001600160a01b03811690600160a01b900460ff1688565b6040805161010081018252600080548083526020830188815293830187905260608301869052608083018590524260a08401523360c0840152600160e0840181905281018255818052825160079091027f290decd9548b62a8d60345a988386fc84ba6bc95484008f6362f93160ef3e56381019182559351919383927f290decd9548b62a8d60345a988386fc84ba6bc95484008f6362f93160ef3e564909101906104369082610f2c565b506040820151600282019061044b9082610f2c565b50606082015160038201556080820151600482015560a0820151600582015560c08201516006909101805460e0909301511515600160a01b026001600160a81b03199093166001600160a01b03909216919091179190911790553360009081526001602081815260408320805480840182559084529281902084516007909402019283558301518392918201906104e29082610f2c565b50604082015160028201906104f79082610f2c565b5060608201516003808301919091556080830151600483015560a0830151600583015560c08301516006909201805460e0909401511515600160a01b026001600160a81b03199094166001600160a01b0390931692909217929092179055805490600061056383610fec565b909155505080516040517f0c4f2a1a407989be83db4b5c1bb80ee9305ec4ea0a1be987641081a5544d7101906105a490899089908990899033904290611013565b60405180910390a25195945050505050565b61060960405180610100016040528060008152602001606081526020016060815260200160008152602001600081526020016000815260200160006001600160a01b031681526020016000151581525090565b60005482106106515760405162461bcd60e51b8152602060048201526014602482015273151c98591948191bd95cc81b9bdd08195e1a5cdd60621b60448201526064016101cd565b6000828154811061066457610664611067565b9060005260206000209060070201604051806101000160405290816000820154815260200160018201805461069890610ea3565b80601f01602080910402602001604051908101604052809291908181526020018280546106c490610ea3565b80156107115780601f106106e657610100808354040283529160200191610711565b820191906000526020600020905b8154815290600101906020018083116106f457829003601f168201915b5050505050815260200160028201805461072a90610ea3565b80601f016020809104026020016040519081016040528092919081815260200182805461075690610ea3565b80156107a35780601f10610778576101008083540402835291602001916107a3565b820191906000526020600020905b81548152906001019060200180831161078657829003601f168201915b50505091835250506003820154602082015260048201546040820152600582015460608201526006909101546001600160a01b0381166080830152600160a01b900460ff16151560a09091015292915050565b6001600160a01b0381166000908152600160209081526040808320805482518185028101850190935280835260609492939192909184015b828210156109d85783829060005260206000209060070201604051806101000160405290816000820154815260200160018201805461086c90610ea3565b80601f016020809104026020016040519081016040528092919081815260200182805461089890610ea3565b80156108e55780601f106108ba576101008083540402835291602001916108e5565b820191906000526020600020905b8154815290600101906020018083116108c857829003601f168201915b505050505081526020016002820180546108fe90610ea3565b80601f016020809104026020016040519081016040528092919081815260200182805461092a90610ea3565b80156109775780601f1061094c57610100808354040283529160200191610977565b820191906000526020600020905b81548152906001019060200180831161095a57829003601f168201915b5050509183525050600382015460208083019190915260048301546040830152600583015460608301526006909201546001600160a01b0381166080830152600160a01b900460ff16151560a090910152908252600192909201910161082e565b505050509050919050565b7fbafecb3c4c4427b5ce5e1a4c30a7d99d68622e6ac9ec1500b5a1b11691a06c9383838342604051610a18949392919061107d565b60405180910390a1505050565b60016020528160005260406000208181548110610a4157600080fd5b90600052602060002090600702016000915091505080600001549080600101805461024c90610ea3565b634e487b7160e01b600052604160045260246000fd5b600082601f830112610a9257600080fd5b813567ffffffffffffffff80821115610aad57610aad610a6b565b604051601f8301601f19908116603f01168101908282118183101715610ad557610ad5610a6b565b81604052838152866020858801011115610aee57600080fd5b836020870160208301376000602085830101528094505050505092915050565b600080600060608486031215610b2357600080fd5b83359250602084013567ffffffffffffffff811115610b4157600080fd5b610b4d86828701610a81565b925050604084013590509250925092565b600060208284031215610b7057600080fd5b5035919050565b6000815180845260005b81811015610b9d57602081850181015186830182015201610b81565b506000602082860101526020601f19601f83011685010191505092915050565b60006101008a8352806020840152610bd78184018b610b77565b90508281036040840152610beb818a610b77565b60608401989098525050608081019490945260a08401929092526001600160a01b031660c0830152151560e0909101529392505050565b60008060008060808587031215610c3857600080fd5b843567ffffffffffffffff80821115610c5057600080fd5b610c5c88838901610a81565b95506020870135915080821115610c7257600080fd5b50610c7f87828801610a81565b949794965050505060408301359260600135919050565b6000610100825184526020830151816020860152610cb682860182610b77565b91505060408301518482036040860152610cd08282610b77565b915050606083015160608501526080830151608085015260a083015160a085015260018060a01b0360c08401511660c085015260e0830151151560e08501528091505092915050565b602081526000610d2c6020830184610c96565b9392505050565b80356001600160a01b0381168114610d4a57600080fd5b919050565b600060208284031215610d6157600080fd5b610d2c82610d33565b6000602080830181845280855180835260408601915060408160051b870101925083870160005b82811015610dbf57603f19888603018452610dad858351610c96565b94509285019290850190600101610d91565b5092979650505050505050565b600080600060608486031215610de157600080fd5b833567ffffffffffffffff80821115610df957600080fd5b610e0587838801610a81565b94506020860135915080821115610e1b57600080fd5b610e2787838801610a81565b93506040860135915080821115610e3d57600080fd5b50610e4a86828701610a81565b9150509250925092565b60008060408385031215610e6757600080fd5b610e7083610d33565b946020939093013593505050565b606081526000610e916060830186610b77565b60208301949094525060400152919050565b600181811c90821680610eb757607f821691505b602082108103610ed757634e487b7160e01b600052602260045260246000fd5b50919050565b601f821115610f2757600081815260208120601f850160051c81016020861015610f045750805b601f850160051c820191505b81811015610f2357828155600101610f10565b5050505b505050565b815167ffffffffffffffff811115610f4657610f46610a6b565b610f5a81610f548454610ea3565b84610edd565b602080601f831160018114610f8f5760008415610f775750858301515b600019600386901b1c1916600185901b178555610f23565b600085815260208120601f198616915b82811015610fbe57888601518255948401946001909101908401610f9f565b5085821015610fdc5787850151600019600388901b60f8161c191681555b5050505050600190811b01905550565b60006001820161100c57634e487b7160e01b600052601160045260246000fd5b5060010190565b60c08152600061102660c0830189610b77565b82810360208401526110388189610b77565b6040840197909752505060608101939093526001600160a01b0391909116608083015260a09091015292915050565b634e487b7160e01b600052603260045260246000fd5b6080815260006110906080830187610b77565b82810360208401526110a28187610b77565b905082810360408401526110b68186610b77565b9150508260608301529594505050505056fea26469706673582212203c99f7dbee44984f1b0a7ccf6086706ff9b58a9a9ab63996108b0db2ae6442c164736f6c63430008140033",
  "linkReferences": {},
  "deployedLinkReferences": {}
}