{
  "_format": "hh-sol-artifact-1",
  "contractName": "TradeExecutor",
  "sourceName": "contracts/TradeExecutor.sol",
  "abi": [
    {
      "anonymous": false,
      "inputs": [
        {
          "indexed": true,
          "internalType": "uint256",
          "name": "tradeId",
          "type": "uint256"
        },
        {
          "indexed": false,
          "internalType": "string",
          "name": "symbol",
          "type": "string"
        },
        {
          "indexed": false,
          "internalType": "string",
          "name": "side",
          "type": "string"
        },
        {
          "indexed": false,
          "internalType": "uint256",
          "name": "amount",
          "type": "uint256"
        },
        {
          "indexed": false,
          "internalType": "address",
          "name": "trader",
          "type": "address"
        }
      ],
      "name": "TradeExecuted",
      "type": "event"
    },
    {
      "anonymous": false,
      "inputs": [
        {
          "indexed": true,
          "internalType": "uint256",
          "name": "tradeId",
          "type": "uint256"
        },
        {
          "indexed": false,
          "internalType": "string",
          "name": "reason",
          "type": "string"
        }
      ],
      "name": "TradeFailed",
      "type": "event"
    },
    {
      "inputs": [
        {
          "internalType": "string",
          "name": "_symbol",
          "type": "string"
        },
        {
          "internalType": "string",
          "name": "_side",
          "type": "string"
        },
        {
          "internalType": "uint256",
          "name": "_amount",
          "type": "uint256"
        }
      ],
      "name": "executeTrade",
      "outputs": [
        {
          "internalType": "uint256",
          "name": "",
          "type": "uint256"
        }
      ],
      "stateMutability": "nonpayable",
      "type": "function"
    },
    {
      "inputs": [
        {
          "internalType": "string",
          "name": "_symbol",
          "type": "string"
        }
      ],
      "name": "getCurrentPrice",
      "outputs": [
        {
          "internalType": "uint256",
          "name": "",
          "type": "uint256"
        }
      ],
      "stateMutability": "pure",
      "type": "function"
    },
    {
      "inputs": [
        {
          "internalType": "uint256",
          "name": "_count",
          "type": "uint256"
        }
      ],
      "name": "getLatestTrades",
      "outputs": [
        {
          "components": [
            {
              "internalType": "uint256",
              "name": "id",
              "type": "uint256"
            },
            {
              "internalType": "string",
              "name": "symbol",
              "type": "string"
            },
            {
              "internalType": "string",
              "name": "side",
              "type": "string"
            },
            {
              "internalType": "uint256",
              "name": "amount",
              "type": "uint256"
            },
            {
              "internalType": "uint256",
              "name": "price",
              "type": "uint256"
            },
            {
              "internalType": "uint256",
              "name": "timestamp",
              "type": "uint256"
            },
            {
              "internalType": "address",
              "name": "trader",
              "type": "address"
            },
            {
              "internalType": "bool",
              "name": "isLive",
              "type": "bool"
            }
          ],
          "internalType": "struct TradeExecutor.Trade[]",
          "name": "",
          "type": "tuple[]"
        }
      ],
      "stateMutability": "view",
      "type": "function"
    },
    {
      "inputs": [
        {
          "internalType": "uint256",
          "name": "_tradeId",
          "type": "uint256"
        }
      ],
      "name": "getTrade",
      "outputs": [
        {
          "components": [
            {
              "internalType": "uint256",
              "name": "id",
              "type": "uint256"
            },
            {
              "internalType": "string",
              "name": "symbol",
              "type": "string"
            },
            {
              "internalType": "string",
              "name": "side",
              "type": "string"
            },
            {
              "internalType": "uint256",
              "name": "amount",
              "type": "uint256"
            },
            {
              "internalType": "uint256",
              "name": "price",
              "type": "uint256"
            },
            {
              "internalType": "uint256",
              "name": "timestamp",
              "type": "uint256"
            },
            {
              "internalType": "address",
              "name": "trader",
              "type": "address"
            },
            {
              "internalType": "bool",
              "name": "isLive",
              "type": "bool"
            }
          ],
          "internalType": "struct TradeExecutor.Trade",
          "name": "",
          "type": "tuple"
        }
      ],
      "stateMutability": "view",
      "type": "function"
    },
    {
      "inputs": [
        {
          "internalType": "address",
          "name": "_user",
          "type": "address"
        }
      ],
      "name": "getUserTrades",
      "outputs": [
        {
          "internalType": "uint256[]",
          "name": "",
          "type": "uint256[]"
        }
      ],
      "stateMutability": "view",
      "type": "function"
    },
    {
      "inputs": [
        {
          "internalType": "address",
          "name": "_user",
          "type": "address"
        }
      ],
      "name": "getUserVolume",
      "outputs": [
        {
          "internalType": "uint256",
          "name": "",
          "type": "uint256"
        }
      ],
      "stateMutability": "view",
      "type": "function"
    },
    {
      "inputs": [
        {
          "internalType": "address",
          "name": "",
          "type": "address"
        }
      ],
      "name": "totalVolume",
      "outputs": [
        {
          "internalType": "uint256",
          "name": "",
          "type": "uint256"
        }
      ],
      "stateMutability": "view",
      "type": "function"
    },
    {
      "inputs": [],
      "name": "tradeCount",
      "outputs": [
        {
          "internalType": "uint256",
          "name": "",
          "type": "uint256"
        }
      ],
      "stateMutability": "view",
      "type": "function"
    },
    {
      "inputs": [
        {
          "internalType": "uint256",
          "name": "",
          "type": "uint256"
        }
      ],
      "name": "trades",
      "outputs": [
        {
          "internalType": "uint256",
          "name": "id",
          "type": "uint256"
        },
        {
          "internalType": "string",
          "name": "symbol",
          "type": "string"
        },
        {
          "internalType": "string",
          "name": "side",
          "type": "string"
        },
        {
          "internalType": "uint256",
          "name": "amount",
          "type": "uint256"
        },
        {
          "internalType": "uint256",
          "name": "price",
          "type": "uint256"
        },
        {
          "internalType": "uint256",
          "name": "timestamp",
          "type": "uint256"
        },
        {
          "internalType": "address",
          "name": "trader",
          "type": "address"
        },
        {
          "internalType": "bool",
          "name": "isLive",
          "type": "bool"
        }
      ],
      "stateMutability": "view",
      "type": "function"
    },
    {
      "inputs": [
        {
          "internalType": "address",
          "name": "",
          "type": "address"
        },
        {
          "internalType": "uint256",
          "name": "",
          "type": "uint256"
        }
      ],
      "name": "userTrades",
      "outputs": [
        {
          "internalType": "uint256",
          "name": "",
          "type": "uint256"
        }
      ],
      "stateMutability": "view",
      "type": "function"
    }
  ],
  "bytecode": "0x608060405234801561001057600080fd5b50611160806100206000396000f3fe608060405234801561001057600080fd5b506004361061009e5760003560e01c8063b1b1ffab11610066578063b1b1ffab14610154578063bbf84ee714610167578063bd55022a14610190578063e180b92914610199578063e62b9e6c146101ac57600080fd5b80631e6c598e146100a35780632db25e05146100d357806342a0f243146100f3578063927c774214610114578063aa627e7514610134575b600080fd5b6100b66100b1366004610b74565b6101cc565b6040516100ca989796959493929190610bd3565b60405180910390f35b6100e66100e1366004610b74565b61032c565b6040516100ca9190610cbb565b610106610101366004610d78565b61051a565b6040519081526020016100ca565b610127610122366004610dd1565b6105e4565b6040516100ca9190610dec565b610147610142366004610b74565b610650565b6040516100ca9190610e30565b610106610162366004610e92565b6108a2565b610106610175366004610dd1565b6001600160a01b031660009081526003602052604090205490565b61010660005481565b6101066101a7366004610ebc565b6108d3565b6101066101ba366004610dd1565b60036020526000908152604090205481565b6001602081905260009182526040909120805491810180546101ed90610f29565b80601f016020809104026020016040519081016040528092919081815260200182805461021990610f29565b80156102665780601f1061023b57610100808354040283529160200191610266565b820191906000526020600020905b81548152906001019060200180831161024957829003601f168201915b50505050509080600201805461027b90610f29565b80601f01602080910402602001604051908101604052809291908181526020018280546102a790610f29565b80156102f45780601f106102c9576101008083540402835291602001916102f4565b820191906000526020600020905b8154815290600101906020018083116102d757829003601f168201915b50505050600383015460048401546005850154600690950154939491939092506001600160a01b03811690600160a01b900460ff1688565b610334610b24565b60008211801561034657506000548211155b61038a5760405162461bcd60e51b815260206004820152601060248201526f125b9d985b1a59081d1c98591948125160821b60448201526064015b60405180910390fd5b60008281526001602081815260409283902083516101008101909452805484529182018054918401916103bc90610f29565b80601f01602080910402602001604051908101604052809291908181526020018280546103e890610f29565b80156104355780601f1061040a57610100808354040283529160200191610435565b820191906000526020600020905b81548152906001019060200180831161041857829003601f168201915b5050505050815260200160028201805461044e90610f29565b80601f016020809104026020016040519081016040528092919081815260200182805461047a90610f29565b80156104c75780601f1061049c576101008083540402835291602001916104c7565b820191906000526020600020905b8154815290600101906020018083116104aa57829003601f168201915b50505091835250506003820154602082015260048201546040820152600582015460608201526006909101546001600160a01b0381166080830152600160a01b900460ff16151560a09091015292915050565b604080518082019091526007815266109510d554d11560ca1b6020918201528151908201206000907f32bdc4e949bef65fb6d15477e2f910e29b8f2da071c290fb0a533eee0e896c6401610579575069141df5d77c6d9d600000919050565b6040805180820190915260078152661155121554d11560ca1b6020918201528251908301207f514e8e7f13920f29bc8ae34417d5398e9956ef0bf6d3dc087e32c61b9a7d1364016105d4575068bdbc41e0348b300000919050565b50683635c9adc5dea00000919050565b6001600160a01b03811660009081526002602090815260409182902080548351818402810184019094528084526060939283018282801561064457602002820191906000526020600020905b815481526020019060010190808311610630575b50505050509050919050565b60606000805483116106625782610666565b6000545b905060008167ffffffffffffffff81111561068357610683610cd5565b6040519080825280602002602001820160405280156106bc57816020015b6106a9610b24565b8152602001906001900390816106a15790505b50905060005b8281101561089a5760016000826000546106dc9190610f79565b8152602001908152602001600020604051806101000160405290816000820154815260200160018201805461071090610f29565b80601f016020809104026020016040519081016040528092919081815260200182805461073c90610f29565b80156107895780601f1061075e57610100808354040283529160200191610789565b820191906000526020600020905b81548152906001019060200180831161076c57829003601f168201915b505050505081526020016002820180546107a290610f29565b80601f01602080910402602001604051908101604052809291908181526020018280546107ce90610f29565b801561081b5780601f106107f05761010080835404028352916020019161081b565b820191906000526020600020905b8154815290600101906020018083116107fe57829003601f168201915b50505091835250506003820154602082015260048201546040820152600582015460608201526006909101546001600160a01b0381166080830152600160a01b900460ff16151560a090910152825183908390811061087c5761087c610f92565b6020026020010181905250808061089290610fa8565b9150506106c2565b509392505050565b600260205281600052604060002081815481106108be57600080fd5b90600052602060002001600091509150505481565b6000808451116109175760405162461bcd60e51b815260206004820152600f60248201526e14de5b589bdb081c995c5d5a5c9959608a1b6044820152606401610381565b60008351116109585760405162461bcd60e51b815260206004820152600d60248201526c14da5919481c995c5d5a5c9959609a1b6044820152606401610381565b6000821161099d5760405162461bcd60e51b81526020600482015260126024820152710416d6f756e74206d757374206265203e20360741b6044820152606401610381565b6000805490806109ac83610fa8565b919050555060405180610100016040528060005481526020018581526020018481526020018381526020016109e08661051a565b81524260208083019190915233604080840191909152600160609093018390526000805481528383522083518155908301519091820190610a219082611010565b5060408201516002820190610a369082611010565b5060608201516003808301919091556080830151600483015560a0830151600583015560c08301516006909201805460e0909401511515600160a01b026001600160a81b03199094166001600160a01b039093169290921792909217905533600081815260026020908152604080832083548154600181018355918552838520909101559282529290925281208054849290610ad39084906110d0565b90915550506000546040517fd985d960469a34bc38316d76d4c58948664c72a930a425ee8c69a3958f2be29c90610b119087908790879033906110e3565b60405180910390a2506000549392505050565b60405180610100016040528060008152602001606081526020016060815260200160008152602001600081526020016000815260200160006001600160a01b031681526020016000151581525090565b600060208284031215610b8657600080fd5b5035919050565b6000815180845260005b81811015610bb357602081850181015186830182015201610b97565b506000602082860101526020601f19601f83011685010191505092915050565b60006101008a8352806020840152610bed8184018b610b8d565b90508281036040840152610c01818a610b8d565b60608401989098525050608081019490945260a08401929092526001600160a01b031660c0830152151560e0909101529392505050565b6000610100825184526020830151816020860152610c5882860182610b8d565b91505060408301518482036040860152610c728282610b8d565b915050606083015160608501526080830151608085015260a083015160a085015260018060a01b0360c08401511660c085015260e0830151151560e08501528091505092915050565b602081526000610cce6020830184610c38565b9392505050565b634e487b7160e01b600052604160045260246000fd5b600082601f830112610cfc57600080fd5b813567ffffffffffffffff80821115610d1757610d17610cd5565b604051601f8301601f19908116603f01168101908282118183101715610d3f57610d3f610cd5565b81604052838152866020858801011115610d5857600080fd5b836020870160208301376000602085830101528094505050505092915050565b600060208284031215610d8a57600080fd5b813567ffffffffffffffff811115610da157600080fd5b610dad84828501610ceb565b949350505050565b80356001600160a01b0381168114610dcc57600080fd5b919050565b600060208284031215610de357600080fd5b610cce82610db5565b6020808252825182820181905260009190848201906040850190845b81811015610e2457835183529284019291840191600101610e08565b50909695505050505050565b6000602080830181845280855180835260408601915060408160051b870101925083870160005b82811015610e8557603f19888603018452610e73858351610c38565b94509285019290850190600101610e57565b5092979650505050505050565b60008060408385031215610ea557600080fd5b610eae83610db5565b946020939093013593505050565b600080600060608486031215610ed157600080fd5b833567ffffffffffffffff80821115610ee957600080fd5b610ef587838801610ceb565b94506020860135915080821115610f0b57600080fd5b50610f1886828701610ceb565b925050604084013590509250925092565b600181811c90821680610f3d57607f821691505b602082108103610f5d57634e487b7160e01b600052602260045260246000fd5b50919050565b634e487b7160e01b600052601160045260246000fd5b81810381811115610f8c57610f8c610f63565b92915050565b634e487b7160e01b600052603260045260246000fd5b600060018201610fba57610fba610f63565b5060010190565b601f82111561100b57600081815260208120601f850160051c81016020861015610fe85750805b601f850160051c820191505b8181101561100757828155600101610ff4565b5050505b505050565b815167ffffffffffffffff81111561102a5761102a610cd5565b61103e816110388454610f29565b84610fc1565b602080601f831160018114611073576000841561105b5750858301515b600019600386901b1c1916600185901b178555611007565b600085815260208120601f198616915b828110156110a257888601518255948401946001909101908401611083565b50858210156110c05787850151600019600388901b60f8161c191681555b5050505050600190811b01905550565b80820180821115610f8c57610f8c610f63565b6080815260006110f66080830187610b8d565b82810360208401526111088187610b8d565b604084019590955250506001600160a01b03919091166060909101529291505056fea2646970667358221220f56f08376e2a9b9f3ffc4b960b0887cf5c19e3e9b0a69b7e20b60df5aeb9fad064736f6c63430008140033",
  "linkReferences": {},
  "deployedLinkReferences": {}
}