{
  "_format": "hh-sol-artifact-1",
  "contractName": "DAOVoting",
  "sourceName": "contracts/DAOVoting.sol",
  "abi": [
    {
      "anonymous": false,
      "inputs": [
        {
          "indexed": true,
          "internalType": "uint256",
          "name": "proposalId",
          "type": "uint256"
        },
        {
          "indexed": false,
          "internalType": "uint256",
          "name": "signalId",
          "type": "uint256"
        },
        {
          "indexed": false,
          "internalType": "string",
          "name": "description",
          "type": "string"
        },
        {
          "indexed": false,
          "internalType": "address",
          "name": "proposer",
          "type": "address"
        }
      ],
      "name": "ProposalCreated",
      "type": "event"
    },
    {
      "anonymous": false,
      "inputs": [
        {
          "indexed": true,
          "internalType": "uint256",
          "name": "proposalId",
          "type": "uint256"
        },
        {
          "indexed": false,
          "internalType": "bool",
          "name": "approved",
          "type": "bool"
        }
      ],
      "name": "ProposalExecuted",
      "type": "event"
    },
    {
      "anonymous": false,
      "inputs": [
        {
          "indexed": true,
          "internalType": "uint256",
          "name": "proposalId",
          "type": "uint256"
        },
        {
          "indexed": false,
          "internalType": "address",
          "name": "voter",
          "type": "address"
        },
        {
          "indexed": false,
          "internalType": "bool",
          "name": "support",
          "type": "bool"
        },
        {
          "indexed": false,
          "internalType": "uint256",
          "name": "weight",
          "type": "uint256"
        }
      ],
      "name": "VoteCast",
      "type": "event"
    },
    {
      "inputs": [
        {
          "internalType": "uint256",
          "name": "_signalId",
          "type": "uint256"
        },
        {
          "internalType": "string",
          "name": "_description",
          "type": "string"
        }
      ],
      "name": "createProposal",
      "outputs": [
        {
          "internalType": "uint256",
          "name": "",
          "type": "uint256"
        }
      ],
      "stateMutability": "nonpayable",
      "type": "function"
    },
    {
      "inputs": [
        {
          "internalType": "uint256",
          "name": "_proposalId",
          "type": "uint256"
        }
      ],
      "name": "executeProposal",
      "outputs": [],
      "stateMutability": "nonpayable",
      "type": "function"
    },
    {
      "inputs": [
        {
          "internalType": "uint256",
          "name": "_proposalId",
          "type": "uint256"
        }
      ],
      "name": "getProposal",
      "outputs": [
        {
          "internalType": "uint256",
          "name": "id",
          "type": "uint256"
        },
        {
          "internalType": "uint256",
          "name": "signalId",
          "type": "uint256"
        },
        {
          "internalType": "string",
          "name": "description",
          "type": "string"
        },
        {
          "internalType": "uint256",
          "name": "votesFor",
          "type": "uint256"
        },
        {
          "internalType": "uint256",
          "name": "votesAgainst",
          "type": "uint256"
        },
        {
          "internalType": "uint256",
          "name": "endTime",
          "type": "uint256"
        },
        {
          "internalType": "bool",
          "name": "executed",
          "type": "bool"
        }
      ],
      "stateMutability": "view",
      "type": "function"
    },
    {
      "inputs": [
        {
          "internalType": "uint256",
          "name": "_proposalId",
          "type": "uint256"
        },
        {
          "internalType": "address",
          "name": "_voter",
          "type": "address"
        }
      ],
      "name": "hasVoted",
      "outputs": [
        {
          "internalType": "bool",
          "name": "",
          "type": "bool"
        }
      ],
      "stateMutability": "view",
      "type": "function"
    },
    {
      "inputs": [],
      "name": "minQuorum",
      "outputs": [
        {
          "internalType": "uint256",
          "name": "",
          "type": "uint256"
        }
      ],
      "stateMutability": "view",
      "type": "function"
    },
    {
      "inputs": [],
      "name": "proposalCount",
      "outputs": [
        {
          "internalType": "uint256",
          "name": "",
          "type": "uint256"
        }
      ],
      "stateMutability": "view",
      "type": "function"
    },
    {
      "inputs": [
        {
          "internalType": "uint256",
          "name": "",
          "type": "uint256"
        }
      ],
      "name": "proposals",
      "outputs": [
        {
          "internalType": "uint256",
          "name": "id",
          "type": "uint256"
        },
        {
          "internalType": "uint256",
          "name": "signalId",
          "type": "uint256"
        },
        {
          "internalType": "string",
          "name": "description",
          "type": "string"
        },
        {
          "internalType": "uint256",
          "name": "votesFor",
          "type": "uint256"
        },
        {
          "internalType": "uint256",
          "name": "votesAgainst",
          "type": "uint256"
        },
        {
          "internalType": "uint256",
          "name": "startTime",
          "type": "uint256"
        },
        {
          "internalType": "uint256",
          "name": "endTime",
          "type": "uint256"
        },
        {
          "internalType": "bool",
          "name": "executed",
          "type": "bool"
        },
        {
          "internalType": "address",
          "name": "proposer",
          "type": "address"
        }
      ],
      "stateMutability": "view",
      "type": "function"
    },
    {
      "inputs": [
        {
          "internalType": "address",
          "name": "_voter",
          "type": "address"
        },
        {
          "internalType": "uint256",
          "name": "_power",
          "type": "uint256"
        }
      ],
      "name": "setVotingPower",
      "outputs": [],
      "stateMutability": "nonpayable",
      "type": "function"
    },
    {
      "inputs": [
        {
          "internalType": "uint256",
          "name": "_proposalId",
          "type": "uint256"
        },
        {
          "internalType": "bool",
          "name": "_support",
          "type": "bool"
        }
      ],
      "name": "vote",
      "outputs": [],
      "stateMutability": "nonpayable",
      "type": "function"
    },
    {
      "inputs": [],
      "name": "votingPeriod",
      "outputs": [
        {
          "internalType": "uint256",
          "name": "",
          "type": "uint256"
        }
      ],
      "stateMutability": "view",
      "type": "function"
    },
    {
      "inputs": [
        {
          "internalType": "address",
          "name": "",
          "type": "address"
        }
      ],
      "name": "votingPower",
      "outputs": [
        {
          "internalType": "uint256",
          "name": "",
          "type": "uint256"
        }
      ],
      "stateMutability": "view",
      "type": "function"
    }
  ],
  "bytecode": "0x60806040526203f480600155600a60025534801561001c57600080fd5b50610cd88061002c6000396000f3fe608060405234801561001057600080fd5b50600436106100a95760003560e01c806343859632116100715780634385963214610148578063b5a127e514610195578063c07473f61461019e578063c7f758a8146101be578063c9d27afe146101e4578063da35c664146101f757600080fd5b8063013cf08b146100ae57806302a251a3146100df57806302d52fa4146100f65780630d61b51914610109578063274b91a91461011e575b600080fd5b6100c16100bc366004610846565b610200565b6040516100d6999897969594939291906108a5565b60405180910390f35b6100e860015481565b6040519081526020016100d6565b6100e861010436600461091b565b6102de565b61011c610117366004610846565b6103ed565b005b61011c61012c3660046109f2565b6001600160a01b03909116600090815260046020526040902055565b610185610156366004610a1c565b60008281526003602090815260408083206001600160a01b038516845260080190915290205460ff1692915050565b60405190151581526020016100d6565b6100e860025481565b6100e86101ac366004610a48565b60046020526000908152604090205481565b6101d16101cc366004610846565b610592565b6040516100d69796959493929190610a6a565b61011c6101f2366004610ab1565b610689565b6100e860005481565b6003602052600090815260409020805460018201546002830180549293919261022890610ae6565b80601f016020809104026020016040519081016040528092919081815260200182805461025490610ae6565b80156102a15780601f10610276576101008083540402835291602001916102a1565b820191906000526020600020905b81548152906001019060200180831161028457829003601f168201915b505050600384015460048501546005860154600687015460079097015495969295919450925060ff8116906001600160a01b036101009091041689565b60008082511161032c5760405162461bcd60e51b815260206004820152601460248201527311195cd8dc9a5c1d1a5bdb881c995c5d5a5c995960621b60448201526064015b60405180910390fd5b60008054908061033b83610b36565b9091555050600080548082526003602052604090912090815560018101849055600281016103698482610b9e565b50426005820181905560015461037e91610c5e565b6006820155600781018054610100600160a81b0319163361010081029190911790915560005460405190917fdbe2979c42a8aeb55be9420e680648e5775a48bac33be1873bdcb61d8b495266916103d9918891889190610c71565b60405180910390a250506000545b92915050565b600081815260036020526040902060068101544210156104425760405162461bcd60e51b815260206004820152601060248201526f159bdd1a5b99c81b9bdd08195b99195960821b6044820152606401610323565b600781015460ff161561048a5760405162461bcd60e51b815260206004820152601060248201526f105b1c9958591e48195e1958dd5d195960821b6044820152606401610323565b60008211801561049c57506000548211155b6104db5760405162461bcd60e51b815260206004820152601060248201526f125b9d985b1a59081c1c9bdc1bdcd85b60821b6044820152606401610323565b6000816004015482600301546104f19190610c5e565b905060025481101561053a5760405162461bcd60e51b8152602060048201526012602482015271145d5bdc9d5b481b9bdd081c995858da195960721b6044820152606401610323565b60078201805460ff191660011790556004820154600383015460405191108082529084907f948f4a9cd986f1118c3fbd459f7a22b23c0693e1ca3ef06a6a8be5aa7d39cc03906020015b60405180910390a250505050565b60008060606000806000806000600360008a8152602001908152602001600020905080600001548160010154826002018360030154846004015485600601548660070160009054906101000a900460ff168480546105ef90610ae6565b80601f016020809104026020016040519081016040528092919081815260200182805461061b90610ae6565b80156106685780601f1061063d57610100808354040283529160200191610668565b820191906000526020600020905b81548152906001019060200180831161064b57829003601f168201915b50505050509450975097509750975097509750975050919395979092949650565b6000828152600360205260409020600681015442106106d95760405162461bcd60e51b815260206004820152600c60248201526b159bdd1a5b99c8195b99195960a21b6044820152606401610323565b33600090815260088201602052604090205460ff161561072b5760405162461bcd60e51b815260206004820152600d60248201526c105b1c9958591e481d9bdd1959609a1b6044820152606401610323565b60008311801561073d57506000548311155b61077c5760405162461bcd60e51b815260206004820152601060248201526f125b9d985b1a59081c1c9bdc1bdcd85b60821b6044820152606401610323565b336000908152600460205260408120546107975760016107a8565b336000908152600460205260409020545b3360009081526008840160205260409020805460ff19166001179055905082156107eb57808260030160008282546107e09190610c5e565b909155506108059050565b808260040160008282546107ff9190610c5e565b90915550505b60408051338152841515602082015290810182905284907fcbdf6214089cba887ecbf35a0b6a734589959c9763342c756bb2a80ca2bc9f6e90606001610584565b60006020828403121561085857600080fd5b5035919050565b6000815180845260005b8181101561088557602081850181015186830182015201610869565b506000602082860101526020601f19601f83011685010191505092915050565b60006101208b83528a60208401528060408401526108c58184018b61085f565b60608401999099525050608081019590955260a085019390935260c0840191909152151560e08301526001600160a01b0316610100909101529392505050565b634e487b7160e01b600052604160045260246000fd5b6000806040838503121561092e57600080fd5b82359150602083013567ffffffffffffffff8082111561094d57600080fd5b818501915085601f83011261096157600080fd5b81358181111561097357610973610905565b604051601f8201601f19908116603f0116810190838211818310171561099b5761099b610905565b816040528281528860208487010111156109b457600080fd5b8260208601602083013760006020848301015280955050505050509250929050565b80356001600160a01b03811681146109ed57600080fd5b919050565b60008060408385031215610a0557600080fd5b610a0e836109d6565b946020939093013593505050565b60008060408385031215610a2f57600080fd5b82359150610a3f602084016109d6565b90509250929050565b600060208284031215610a5a57600080fd5b610a63826109d6565b9392505050565b87815286602082015260e060408201526000610a8960e083018861085f565b90508560608301528460808301528360a083015282151560c083015298975050505050505050565b60008060408385031215610ac457600080fd5b8235915060208301358015158114610adb57600080fd5b809150509250929050565b600181811c90821680610afa57607f821691505b602082108103610b1a57634e487b7160e01b600052602260045260246000fd5b50919050565b634e487b7160e01b600052601160045260246000fd5b600060018201610b4857610b48610b20565b5060010190565b601f821115610b9957600081815260208120601f850160051c81016020861015610b765750805b601f850160051c820191505b81811015610b9557828155600101610b82565b5050505b505050565b815167ffffffffffffffff811115610bb857610bb8610905565b610bcc81610bc68454610ae6565b84610b4f565b602080601f831160018114610c015760008415610be95750858301515b600019600386901b1c1916600185901b178555610b95565b600085815260208120601f198616915b82811015610c3057888601518255948401946001909101908401610c11565b5085821015610c4e5787850151600019600388901b60f8161c191681555b5050505050600190811b01905550565b808201808211156103e7576103e7610b20565b838152606060208201526000610c8a606083018561085f565b905060018060a01b038316604083015294935050505056fea2646970667358221220e030d533985c89a44f4af66f66a5a0b74d7f8febe8f8b28da2759a6078fe282164736f6c63430008140033",
  "linkReferences": {},
  "deployedLinkReferences": {}
}